{
	"smart_contractA-main/contracts/ContractA.sol": {
		"ContractA": {
			"abi": [
				{
					"inputs": [],
					"name": "getCallerAddress",
					"outputs": [
						{
							"internalType": "address",
							"name": "",
							"type": "address"
						}
					],
					"stateMutability": "view",
					"type": "function"
				},
				{
					"inputs": [],
					"name": "getCallerWalletBalance",
					"outputs": [
						{
							"internalType": "uint256",
							"name": "",
							"type": "uint256"
						}
					],
					"stateMutability": "view",
					"type": "function"
				},
				{
					"inputs": [],
					"name": "getContractAddress",
					"outputs": [
						{
							"internalType": "address",
							"name": "",
							"type": "address"
						}
					],
					"stateMutability": "view",
					"type": "function"
				},
				{
					"inputs": [],
					"name": "getContractBalance",
					"outputs": [
						{
							"internalType": "uint256",
							"name": "",
							"type": "uint256"
						}
					],
					"stateMutability": "view",
					"type": "function"
				},
				{
					"inputs": [
						{
							"internalType": "address payable",
							"name": "_rec",
							"type": "address"
						}
					],
					"name": "sendToken",
					"outputs": [
						{
							"internalType": "uint256",
							"name": "",
							"type": "uint256"
						}
					],
					"stateMutability": "payable",
					"type": "function"
				}
			],
			"devdoc": {
				"kind": "dev",
				"methods": {},
				"version": 1
			},
			"evm": {
				"assembly": "    /* \"smart_contractA-main/contracts/ContractA.sol\":56:733  contract ContractA{... */\n  mstore(0x40, 0x80)\n  callvalue\n  dup1\n  iszero\n  tag_1\n  jumpi\n  revert(0x00, 0x00)\ntag_1:\n  pop\n  dataSize(sub_0)\n  dup1\n  dataOffset(sub_0)\n  0x00\n  codecopy\n  0x00\n  return\nstop\n\nsub_0: assembly {\n        /* \"smart_contractA-main/contracts/ContractA.sol\":56:733  contract ContractA{... */\n      mstore(0x40, 0x80)\n      jumpi(tag_1, lt(calldatasize, 0x04))\n      shr(0xe0, calldataload(0x00))\n      dup1\n      0x32a2c5d0\n      eq\n      tag_2\n      jumpi\n      dup1\n      0x46b3353b\n      eq\n      tag_3\n      jumpi\n      dup1\n      0x6f9fb98a\n      eq\n      tag_4\n      jumpi\n      dup1\n      0x7a69d12a\n      eq\n      tag_5\n      jumpi\n      dup1\n      0xc575c238\n      eq\n      tag_6\n      jumpi\n    tag_1:\n      revert(0x00, 0x00)\n        /* \"smart_contractA-main/contracts/ContractA.sol\":80:175  function getContractAddress() public view returns(address){... */\n    tag_2:\n      callvalue\n      dup1\n      iszero\n      tag_7\n      jumpi\n      revert(0x00, 0x00)\n    tag_7:\n      pop\n      tag_8\n      tag_9\n      jump\t// in\n    tag_8:\n      mload(0x40)\n      tag_10\n      swap2\n      swap1\n      tag_11\n      jump\t// in\n    tag_10:\n      mload(0x40)\n      dup1\n      swap2\n      sub\n      swap1\n      return\n        /* \"smart_contractA-main/contracts/ContractA.sol\":181:271  function getCallerAddress() public view returns(address){... */\n    tag_3:\n      callvalue\n      dup1\n      iszero\n      tag_12\n      jumpi\n      revert(0x00, 0x00)\n    tag_12:\n      pop\n      tag_13\n      tag_14\n      jump\t// in\n    tag_13:\n      mload(0x40)\n      tag_15\n      swap2\n      swap1\n      tag_11\n      jump\t// in\n    tag_15:\n      mload(0x40)\n      dup1\n      swap2\n      sub\n      swap1\n      return\n        /* \"smart_contractA-main/contracts/ContractA.sol\":277:381  function getContractBalance() public  view returns(uint256){... */\n    tag_4:\n      callvalue\n      dup1\n      iszero\n      tag_16\n      jumpi\n      revert(0x00, 0x00)\n    tag_16:\n      pop\n      tag_17\n      tag_18\n      jump\t// in\n    tag_17:\n      mload(0x40)\n      tag_19\n      swap2\n      swap1\n      tag_20\n      jump\t// in\n    tag_19:\n      mload(0x40)\n      dup1\n      swap2\n      sub\n      swap1\n      return\n        /* \"smart_contractA-main/contracts/ContractA.sol\":387:491  function getCallerWalletBalance() public view returns(uint256){... */\n    tag_5:\n      callvalue\n      dup1\n      iszero\n      tag_21\n      jumpi\n      revert(0x00, 0x00)\n    tag_21:\n      pop\n      tag_22\n      tag_23\n      jump\t// in\n    tag_22:\n      mload(0x40)\n      tag_24\n      swap2\n      swap1\n      tag_20\n      jump\t// in\n    tag_24:\n      mload(0x40)\n      dup1\n      swap2\n      sub\n      swap1\n      return\n        /* \"smart_contractA-main/contracts/ContractA.sol\":497:731  function sendToken(address payable _rec) public payable returns(uint256){... */\n    tag_6:\n      tag_25\n      0x04\n      dup1\n      calldatasize\n      sub\n      dup2\n      add\n      swap1\n      tag_26\n      swap2\n      swap1\n      tag_27\n      jump\t// in\n    tag_26:\n      tag_28\n      jump\t// in\n    tag_25:\n      mload(0x40)\n      tag_29\n      swap2\n      swap1\n      tag_20\n      jump\t// in\n    tag_29:\n      mload(0x40)\n      dup1\n      swap2\n      sub\n      swap1\n      return\n        /* \"smart_contractA-main/contracts/ContractA.sol\":80:175  function getContractAddress() public view returns(address){... */\n    tag_9:\n        /* \"smart_contractA-main/contracts/ContractA.sol\":130:137  address */\n      0x00\n        /* \"smart_contractA-main/contracts/ContractA.sol\":163:167  this */\n      address\n        /* \"smart_contractA-main/contracts/ContractA.sol\":148:168  return address(this) */\n      swap1\n      pop\n        /* \"smart_contractA-main/contracts/ContractA.sol\":80:175  function getContractAddress() public view returns(address){... */\n      swap1\n      jump\t// out\n        /* \"smart_contractA-main/contracts/ContractA.sol\":181:271  function getCallerAddress() public view returns(address){... */\n    tag_14:\n        /* \"smart_contractA-main/contracts/ContractA.sol\":229:236  address */\n      0x00\n        /* \"smart_contractA-main/contracts/ContractA.sol\":254:264  msg.sender */\n      caller\n        /* \"smart_contractA-main/contracts/ContractA.sol\":247:264  return msg.sender */\n      swap1\n      pop\n        /* \"smart_contractA-main/contracts/ContractA.sol\":181:271  function getCallerAddress() public view returns(address){... */\n      swap1\n      jump\t// out\n        /* \"smart_contractA-main/contracts/ContractA.sol\":277:381  function getContractBalance() public  view returns(uint256){... */\n    tag_18:\n        /* \"smart_contractA-main/contracts/ContractA.sol\":328:335  uint256 */\n      0x00\n        /* \"smart_contractA-main/contracts/ContractA.sol\":353:374  address(this).balance */\n      selfbalance\n        /* \"smart_contractA-main/contracts/ContractA.sol\":346:374  return address(this).balance */\n      swap1\n      pop\n        /* \"smart_contractA-main/contracts/ContractA.sol\":277:381  function getContractBalance() public  view returns(uint256){... */\n      swap1\n      jump\t// out\n        /* \"smart_contractA-main/contracts/ContractA.sol\":387:491  function getCallerWalletBalance() public view returns(uint256){... */\n    tag_23:\n        /* \"smart_contractA-main/contracts/ContractA.sol\":441:448  uint256 */\n      0x00\n        /* \"smart_contractA-main/contracts/ContractA.sol\":466:476  msg.sender */\n      caller\n        /* \"smart_contractA-main/contracts/ContractA.sol\":466:484  msg.sender.balance */\n      0xffffffffffffffffffffffffffffffffffffffff\n      and\n      balance\n        /* \"smart_contractA-main/contracts/ContractA.sol\":459:484  return msg.sender.balance */\n      swap1\n      pop\n        /* \"smart_contractA-main/contracts/ContractA.sol\":387:491  function getCallerWalletBalance() public view returns(uint256){... */\n      swap1\n      jump\t// out\n        /* \"smart_contractA-main/contracts/ContractA.sol\":497:731  function sendToken(address payable _rec) public payable returns(uint256){... */\n    tag_28:\n        /* \"smart_contractA-main/contracts/ContractA.sol\":561:568  uint256 */\n      0x00\n        /* \"smart_contractA-main/contracts/ContractA.sol\":599:600  0 */\n      0x00\n        /* \"smart_contractA-main/contracts/ContractA.sol\":587:596  msg.value */\n      callvalue\n        /* \"smart_contractA-main/contracts/ContractA.sol\":587:600  msg.value > 0 */\n      gt\n        /* \"smart_contractA-main/contracts/ContractA.sol\":579:624  require(msg.value > 0, \"insufficent balance\") */\n      tag_35\n      jumpi\n      mload(0x40)\n      0x08c379a000000000000000000000000000000000000000000000000000000000\n      dup2\n      mstore\n      0x04\n      add\n      tag_36\n      swap1\n      tag_37\n      jump\t// in\n    tag_36:\n      mload(0x40)\n      dup1\n      swap2\n      sub\n      swap1\n      revert\n    tag_35:\n        /* \"smart_contractA-main/contracts/ContractA.sol\":665:669  _rec */\n      dup2\n        /* \"smart_contractA-main/contracts/ContractA.sol\":665:678  _rec.transfer */\n      0xffffffffffffffffffffffffffffffffffffffff\n      and\n        /* \"smart_contractA-main/contracts/ContractA.sol\":665:689  _rec.transfer(msg.value) */\n      0x08fc\n        /* \"smart_contractA-main/contracts/ContractA.sol\":679:688  msg.value */\n      callvalue\n        /* \"smart_contractA-main/contracts/ContractA.sol\":665:689  _rec.transfer(msg.value) */\n      swap1\n      dup2\n      iszero\n      mul\n      swap1\n      mload(0x40)\n      0x00\n      mload(0x40)\n      dup1\n      dup4\n      sub\n      dup2\n      dup6\n      dup9\n      dup9\n      call\n      swap4\n      pop\n      pop\n      pop\n      pop\n      iszero\n      dup1\n      iszero\n      tag_39\n      jumpi\n      returndatacopy(0x00, 0x00, returndatasize)\n      revert(0x00, returndatasize)\n    tag_39:\n      pop\n        /* \"smart_contractA-main/contracts/ContractA.sol\":706:716  msg.sender */\n      caller\n        /* \"smart_contractA-main/contracts/ContractA.sol\":706:724  msg.sender.balance */\n      0xffffffffffffffffffffffffffffffffffffffff\n      and\n      balance\n        /* \"smart_contractA-main/contracts/ContractA.sol\":699:724  return msg.sender.balance */\n      swap1\n      pop\n        /* \"smart_contractA-main/contracts/ContractA.sol\":497:731  function sendToken(address payable _rec) public payable returns(uint256){... */\n      swap2\n      swap1\n      pop\n      jump\t// out\n        /* \"#utility.yul\":7:133   */\n    tag_40:\n        /* \"#utility.yul\":44:51   */\n      0x00\n        /* \"#utility.yul\":84:126   */\n      0xffffffffffffffffffffffffffffffffffffffff\n        /* \"#utility.yul\":77:82   */\n      dup3\n        /* \"#utility.yul\":73:127   */\n      and\n        /* \"#utility.yul\":62:127   */\n      swap1\n      pop\n        /* \"#utility.yul\":7:133   */\n      swap2\n      swap1\n      pop\n      jump\t// out\n        /* \"#utility.yul\":139:235   */\n    tag_41:\n        /* \"#utility.yul\":176:183   */\n      0x00\n        /* \"#utility.yul\":205:229   */\n      tag_57\n        /* \"#utility.yul\":223:228   */\n      dup3\n        /* \"#utility.yul\":205:229   */\n      tag_40\n      jump\t// in\n    tag_57:\n        /* \"#utility.yul\":194:229   */\n      swap1\n      pop\n        /* \"#utility.yul\":139:235   */\n      swap2\n      swap1\n      pop\n      jump\t// out\n        /* \"#utility.yul\":241:359   */\n    tag_42:\n        /* \"#utility.yul\":328:352   */\n      tag_59\n        /* \"#utility.yul\":346:351   */\n      dup2\n        /* \"#utility.yul\":328:352   */\n      tag_41\n      jump\t// in\n    tag_59:\n        /* \"#utility.yul\":323:326   */\n      dup3\n        /* \"#utility.yul\":316:353   */\n      mstore\n        /* \"#utility.yul\":241:359   */\n      pop\n      pop\n      jump\t// out\n        /* \"#utility.yul\":365:587   */\n    tag_11:\n        /* \"#utility.yul\":458:462   */\n      0x00\n        /* \"#utility.yul\":496:498   */\n      0x20\n        /* \"#utility.yul\":485:494   */\n      dup3\n        /* \"#utility.yul\":481:499   */\n      add\n        /* \"#utility.yul\":473:499   */\n      swap1\n      pop\n        /* \"#utility.yul\":509:580   */\n      tag_61\n        /* \"#utility.yul\":577:578   */\n      0x00\n        /* \"#utility.yul\":566:575   */\n      dup4\n        /* \"#utility.yul\":562:579   */\n      add\n        /* \"#utility.yul\":553:559   */\n      dup5\n        /* \"#utility.yul\":509:580   */\n      tag_42\n      jump\t// in\n    tag_61:\n        /* \"#utility.yul\":365:587   */\n      swap3\n      swap2\n      pop\n      pop\n      jump\t// out\n        /* \"#utility.yul\":593:670   */\n    tag_43:\n        /* \"#utility.yul\":630:637   */\n      0x00\n        /* \"#utility.yul\":659:664   */\n      dup2\n        /* \"#utility.yul\":648:664   */\n      swap1\n      pop\n        /* \"#utility.yul\":593:670   */\n      swap2\n      swap1\n      pop\n      jump\t// out\n        /* \"#utility.yul\":676:794   */\n    tag_44:\n        /* \"#utility.yul\":763:787   */\n      tag_64\n        /* \"#utility.yul\":781:786   */\n      dup2\n        /* \"#utility.yul\":763:787   */\n      tag_43\n      jump\t// in\n    tag_64:\n        /* \"#utility.yul\":758:761   */\n      dup3\n        /* \"#utility.yul\":751:788   */\n      mstore\n        /* \"#utility.yul\":676:794   */\n      pop\n      pop\n      jump\t// out\n        /* \"#utility.yul\":800:1022   */\n    tag_20:\n        /* \"#utility.yul\":893:897   */\n      0x00\n        /* \"#utility.yul\":931:933   */\n      0x20\n        /* \"#utility.yul\":920:929   */\n      dup3\n        /* \"#utility.yul\":916:934   */\n      add\n        /* \"#utility.yul\":908:934   */\n      swap1\n      pop\n        /* \"#utility.yul\":944:1015   */\n      tag_66\n        /* \"#utility.yul\":1012:1013   */\n      0x00\n        /* \"#utility.yul\":1001:1010   */\n      dup4\n        /* \"#utility.yul\":997:1014   */\n      add\n        /* \"#utility.yul\":988:994   */\n      dup5\n        /* \"#utility.yul\":944:1015   */\n      tag_44\n      jump\t// in\n    tag_66:\n        /* \"#utility.yul\":800:1022   */\n      swap3\n      swap2\n      pop\n      pop\n      jump\t// out\n        /* \"#utility.yul\":1109:1226   */\n    tag_46:\n        /* \"#utility.yul\":1218:1219   */\n      0x00\n        /* \"#utility.yul\":1215:1216   */\n      0x00\n        /* \"#utility.yul\":1208:1220   */\n      revert\n        /* \"#utility.yul\":1355:1459   */\n    tag_48:\n        /* \"#utility.yul\":1400:1407   */\n      0x00\n        /* \"#utility.yul\":1429:1453   */\n      tag_71\n        /* \"#utility.yul\":1447:1452   */\n      dup3\n        /* \"#utility.yul\":1429:1453   */\n      tag_40\n      jump\t// in\n    tag_71:\n        /* \"#utility.yul\":1418:1453   */\n      swap1\n      pop\n        /* \"#utility.yul\":1355:1459   */\n      swap2\n      swap1\n      pop\n      jump\t// out\n        /* \"#utility.yul\":1465:1603   */\n    tag_49:\n        /* \"#utility.yul\":1546:1578   */\n      tag_73\n        /* \"#utility.yul\":1572:1577   */\n      dup2\n        /* \"#utility.yul\":1546:1578   */\n      tag_48\n      jump\t// in\n    tag_73:\n        /* \"#utility.yul\":1539:1544   */\n      dup2\n        /* \"#utility.yul\":1536:1579   */\n      eq\n        /* \"#utility.yul\":1526:1597   */\n      tag_74\n      jumpi\n        /* \"#utility.yul\":1593:1594   */\n      0x00\n        /* \"#utility.yul\":1590:1591   */\n      0x00\n        /* \"#utility.yul\":1583:1595   */\n      revert\n        /* \"#utility.yul\":1526:1597   */\n    tag_74:\n        /* \"#utility.yul\":1465:1603   */\n      pop\n      jump\t// out\n        /* \"#utility.yul\":1609:1764   */\n    tag_50:\n        /* \"#utility.yul\":1663:1668   */\n      0x00\n        /* \"#utility.yul\":1701:1707   */\n      dup2\n        /* \"#utility.yul\":1688:1708   */\n      calldataload\n        /* \"#utility.yul\":1679:1708   */\n      swap1\n      pop\n        /* \"#utility.yul\":1717:1758   */\n      tag_76\n        /* \"#utility.yul\":1752:1757   */\n      dup2\n        /* \"#utility.yul\":1717:1758   */\n      tag_49\n      jump\t// in\n    tag_76:\n        /* \"#utility.yul\":1609:1764   */\n      swap3\n      swap2\n      pop\n      pop\n      jump\t// out\n        /* \"#utility.yul\":1770:2115   */\n    tag_27:\n        /* \"#utility.yul\":1837:1843   */\n      0x00\n        /* \"#utility.yul\":1886:1888   */\n      0x20\n        /* \"#utility.yul\":1874:1883   */\n      dup3\n        /* \"#utility.yul\":1865:1872   */\n      dup5\n        /* \"#utility.yul\":1861:1884   */\n      sub\n        /* \"#utility.yul\":1857:1889   */\n      slt\n        /* \"#utility.yul\":1854:1973   */\n      iszero\n      tag_78\n      jumpi\n        /* \"#utility.yul\":1892:1971   */\n      tag_79\n      tag_46\n      jump\t// in\n    tag_79:\n        /* \"#utility.yul\":1854:1973   */\n    tag_78:\n        /* \"#utility.yul\":2012:2013   */\n      0x00\n        /* \"#utility.yul\":2037:2098   */\n      tag_80\n        /* \"#utility.yul\":2090:2097   */\n      dup5\n        /* \"#utility.yul\":2081:2087   */\n      dup3\n        /* \"#utility.yul\":2070:2079   */\n      dup6\n        /* \"#utility.yul\":2066:2088   */\n      add\n        /* \"#utility.yul\":2037:2098   */\n      tag_50\n      jump\t// in\n    tag_80:\n        /* \"#utility.yul\":2027:2098   */\n      swap2\n      pop\n        /* \"#utility.yul\":1983:2108   */\n      pop\n        /* \"#utility.yul\":1770:2115   */\n      swap3\n      swap2\n      pop\n      pop\n      jump\t// out\n        /* \"#utility.yul\":2121:2290   */\n    tag_51:\n        /* \"#utility.yul\":2205:2216   */\n      0x00\n        /* \"#utility.yul\":2239:2245   */\n      dup3\n        /* \"#utility.yul\":2234:2237   */\n      dup3\n        /* \"#utility.yul\":2227:2246   */\n      mstore\n        /* \"#utility.yul\":2279:2283   */\n      0x20\n        /* \"#utility.yul\":2274:2277   */\n      dup3\n        /* \"#utility.yul\":2270:2284   */\n      add\n        /* \"#utility.yul\":2255:2284   */\n      swap1\n      pop\n        /* \"#utility.yul\":2121:2290   */\n      swap3\n      swap2\n      pop\n      pop\n      jump\t// out\n        /* \"#utility.yul\":2296:2465   */\n    tag_52:\n        /* \"#utility.yul\":2436:2457   */\n      0x696e737566666963656e742062616c616e636500000000000000000000000000\n        /* \"#utility.yul\":2432:2433   */\n      0x00\n        /* \"#utility.yul\":2424:2430   */\n      dup3\n        /* \"#utility.yul\":2420:2434   */\n      add\n        /* \"#utility.yul\":2413:2458   */\n      mstore\n        /* \"#utility.yul\":2296:2465   */\n      pop\n      jump\t// out\n        /* \"#utility.yul\":2471:2837   */\n    tag_53:\n        /* \"#utility.yul\":2613:2616   */\n      0x00\n        /* \"#utility.yul\":2634:2701   */\n      tag_84\n        /* \"#utility.yul\":2698:2700   */\n      0x13\n        /* \"#utility.yul\":2693:2696   */\n      dup4\n        /* \"#utility.yul\":2634:2701   */\n      tag_51\n      jump\t// in\n    tag_84:\n        /* \"#utility.yul\":2627:2701   */\n      swap2\n      pop\n        /* \"#utility.yul\":2710:2803   */\n      tag_85\n        /* \"#utility.yul\":2799:2802   */\n      dup3\n        /* \"#utility.yul\":2710:2803   */\n      tag_52\n      jump\t// in\n    tag_85:\n        /* \"#utility.yul\":2828:2830   */\n      0x20\n        /* \"#utility.yul\":2823:2826   */\n      dup3\n        /* \"#utility.yul\":2819:2831   */\n      add\n        /* \"#utility.yul\":2812:2831   */\n      swap1\n      pop\n        /* \"#utility.yul\":2471:2837   */\n      swap2\n      swap1\n      pop\n      jump\t// out\n        /* \"#utility.yul\":2843:3262   */\n    tag_37:\n        /* \"#utility.yul\":3009:3013   */\n      0x00\n        /* \"#utility.yul\":3047:3049   */\n      0x20\n        /* \"#utility.yul\":3036:3045   */\n      dup3\n        /* \"#utility.yul\":3032:3050   */\n      add\n        /* \"#utility.yul\":3024:3050   */\n      swap1\n      pop\n        /* \"#utility.yul\":3096:3105   */\n      dup2\n        /* \"#utility.yul\":3090:3094   */\n      dup2\n        /* \"#utility.yul\":3086:3106   */\n      sub\n        /* \"#utility.yul\":3082:3083   */\n      0x00\n        /* \"#utility.yul\":3071:3080   */\n      dup4\n        /* \"#utility.yul\":3067:3084   */\n      add\n        /* \"#utility.yul\":3060:3107   */\n      mstore\n        /* \"#utility.yul\":3124:3255   */\n      tag_87\n        /* \"#utility.yul\":3250:3254   */\n      dup2\n        /* \"#utility.yul\":3124:3255   */\n      tag_53\n      jump\t// in\n    tag_87:\n        /* \"#utility.yul\":3116:3255   */\n      swap1\n      pop\n        /* \"#utility.yul\":2843:3262   */\n      swap2\n      swap1\n      pop\n      jump\t// out\n\n    auxdata: 0xa26469706673582212206b646effc816a5aa6abb608939262a6b726c70d4cdda0c87aab1ca4ab63979ae64736f6c634300081e0033\n}\n",
				"bytecode": {
					"linkReferences": {},
					"object": "6080604052348015600e575f5ffd5b5061039f8061001c5f395ff3fe608060405260043610610049575f3560e01c806332a2c5d01461004d57806346b3353b146100775780636f9fb98a146100a15780637a69d12a146100cb578063c575c238146100f5575b5f5ffd5b348015610058575f5ffd5b50610061610125565b60405161006e919061023d565b60405180910390f35b348015610082575f5ffd5b5061008b61012c565b604051610098919061023d565b60405180910390f35b3480156100ac575f5ffd5b506100b5610133565b6040516100c2919061026e565b60405180910390f35b3480156100d6575f5ffd5b506100df61013a565b6040516100ec919061026e565b60405180910390f35b61010f600480360381019061010a91906102c6565b610158565b60405161011c919061026e565b60405180910390f35b5f30905090565b5f33905090565b5f47905090565b5f3373ffffffffffffffffffffffffffffffffffffffff1631905090565b5f5f341161019b576040517f08c379a00000000000000000000000000000000000000000000000000000000081526004016101929061034b565b60405180910390fd5b8173ffffffffffffffffffffffffffffffffffffffff166108fc3490811502906040515f60405180830381858888f193505050501580156101de573d5f5f3e3d5ffd5b503373ffffffffffffffffffffffffffffffffffffffff16319050919050565b5f73ffffffffffffffffffffffffffffffffffffffff82169050919050565b5f610227826101fe565b9050919050565b6102378161021d565b82525050565b5f6020820190506102505f83018461022e565b92915050565b5f819050919050565b61026881610256565b82525050565b5f6020820190506102815f83018461025f565b92915050565b5f5ffd5b5f610295826101fe565b9050919050565b6102a58161028b565b81146102af575f5ffd5b50565b5f813590506102c08161029c565b92915050565b5f602082840312156102db576102da610287565b5b5f6102e8848285016102b2565b91505092915050565b5f82825260208201905092915050565b7f696e737566666963656e742062616c616e6365000000000000000000000000005f82015250565b5f6103356013836102f1565b915061034082610301565b602082019050919050565b5f6020820190508181035f83015261036281610329565b905091905056fea26469706673582212206b646effc816a5aa6abb608939262a6b726c70d4cdda0c87aab1ca4ab63979ae64736f6c634300081e0033",
					"opcodes": "PUSH1 0x80 PUSH1 0x40 MSTORE CALLVALUE DUP1 ISZERO PUSH1 0xE JUMPI PUSH0 PUSH0 REVERT JUMPDEST POP PUSH2 0x39F DUP1 PUSH2 0x1C PUSH0 CODECOPY PUSH0 RETURN INVALID PUSH1 0x80 PUSH1 0x40 MSTORE PUSH1 0x4 CALLDATASIZE LT PUSH2 0x49 JUMPI PUSH0 CALLDATALOAD PUSH1 0xE0 SHR DUP1 PUSH4 0x32A2C5D0 EQ PUSH2 0x4D JUMPI DUP1 PUSH4 0x46B3353B EQ PUSH2 0x77 JUMPI DUP1 PUSH4 0x6F9FB98A EQ PUSH2 0xA1 JUMPI DUP1 PUSH4 0x7A69D12A EQ PUSH2 0xCB JUMPI DUP1 PUSH4 0xC575C238 EQ PUSH2 0xF5 JUMPI JUMPDEST PUSH0 PUSH0 REVERT JUMPDEST CALLVALUE DUP1 ISZERO PUSH2 0x58 JUMPI PUSH0 PUSH0 REVERT JUMPDEST POP PUSH2 0x61 PUSH2 0x125 JUMP JUMPDEST PUSH1 0x40 MLOAD PUSH2 0x6E SWAP2 SWAP1 PUSH2 0x23D JUMP JUMPDEST PUSH1 0x40 MLOAD DUP1 SWAP2 SUB SWAP1 RETURN JUMPDEST CALLVALUE DUP1 ISZERO PUSH2 0x82 JUMPI PUSH0 PUSH0 REVERT JUMPDEST POP PUSH2 0x8B PUSH2 0x12C JUMP JUMPDEST PUSH1 0x40 MLOAD PUSH2 0x98 SWAP2 SWAP1 PUSH2 0x23D JUMP JUMPDEST PUSH1 0x40 MLOAD DUP1 SWAP2 SUB SWAP1 RETURN JUMPDEST CALLVALUE DUP1 ISZERO PUSH2 0xAC JUMPI PUSH0 PUSH0 REVERT JUMPDEST POP PUSH2 0xB5 PUSH2 0x133 JUMP JUMPDEST PUSH1 0x40 MLOAD PUSH2 0xC2 SWAP2 SWAP1 PUSH2 0x26E JUMP JUMPDEST PUSH1 0x40 MLOAD DUP1 SWAP2 SUB SWAP1 RETURN JUMPDEST CALLVALUE DUP1 ISZERO PUSH2 0xD6 JUMPI PUSH0 PUSH0 REVERT JUMPDEST POP PUSH2 0xDF PUSH2 0x13A JUMP JUMPDEST PUSH1 0x40 MLOAD PUSH2 0xEC SWAP2 SWAP1 PUSH2 0x26E JUMP JUMPDEST PUSH1 0x40 MLOAD DUP1 SWAP2 SUB SWAP1 RETURN JUMPDEST PUSH2 0x10F PUSH1 0x4 DUP1 CALLDATASIZE SUB DUP2 ADD SWAP1 PUSH2 0x10A SWAP2 SWAP1 PUSH2 0x2C6 JUMP JUMPDEST PUSH2 0x158 JUMP JUMPDEST PUSH1 0x40 MLOAD PUSH2 0x11C SWAP2 SWAP1 PUSH2 0x26E JUMP JUMPDEST PUSH1 0x40 MLOAD DUP1 SWAP2 SUB SWAP1 RETURN JUMPDEST PUSH0 ADDRESS SWAP1 POP SWAP1 JUMP JUMPDEST PUSH0 CALLER SWAP1 POP SWAP1 JUMP JUMPDEST PUSH0 SELFBALANCE SWAP1 POP SWAP1 JUMP JUMPDEST PUSH0 CALLER PUSH20 0xFFFFFFFFFFFFFFFFFFFFFFFFFFFFFFFFFFFFFFFF AND BALANCE SWAP1 POP SWAP1 JUMP JUMPDEST PUSH0 PUSH0 CALLVALUE GT PUSH2 0x19B JUMPI PUSH1 0x40 MLOAD PUSH32 0x8C379A000000000000000000000000000000000000000000000000000000000 DUP2 MSTORE PUSH1 0x4 ADD PUSH2 0x192 SWAP1 PUSH2 0x34B JUMP JUMPDEST PUSH1 0x40 MLOAD DUP1 SWAP2 SUB SWAP1 REVERT JUMPDEST DUP2 PUSH20 0xFFFFFFFFFFFFFFFFFFFFFFFFFFFFFFFFFFFFFFFF AND PUSH2 0x8FC CALLVALUE SWAP1 DUP2 ISZERO MUL SWAP1 PUSH1 0x40 MLOAD PUSH0 PUSH1 0x40 MLOAD DUP1 DUP4 SUB DUP2 DUP6 DUP9 DUP9 CALL SWAP4 POP POP POP POP ISZERO DUP1 ISZERO PUSH2 0x1DE JUMPI RETURNDATASIZE PUSH0 PUSH0 RETURNDATACOPY RETURNDATASIZE PUSH0 REVERT JUMPDEST POP CALLER PUSH20 0xFFFFFFFFFFFFFFFFFFFFFFFFFFFFFFFFFFFFFFFF AND BALANCE SWAP1 POP SWAP2 SWAP1 POP JUMP JUMPDEST PUSH0 PUSH20 0xFFFFFFFFFFFFFFFFFFFFFFFFFFFFFFFFFFFFFFFF DUP3 AND SWAP1 POP SWAP2 SWAP1 POP JUMP JUMPDEST PUSH0 PUSH2 0x227 DUP3 PUSH2 0x1FE JUMP JUMPDEST SWAP1 POP SWAP2 SWAP1 POP JUMP JUMPDEST PUSH2 0x237 DUP2 PUSH2 0x21D JUMP JUMPDEST DUP3 MSTORE POP POP JUMP JUMPDEST PUSH0 PUSH1 0x20 DUP3 ADD SWAP1 POP PUSH2 0x250 PUSH0 DUP4 ADD DUP5 PUSH2 0x22E JUMP JUMPDEST SWAP3 SWAP2 POP POP JUMP JUMPDEST PUSH0 DUP2 SWAP1 POP SWAP2 SWAP1 POP JUMP JUMPDEST PUSH2 0x268 DUP2 PUSH2 0x256 JUMP JUMPDEST DUP3 MSTORE POP POP JUMP JUMPDEST PUSH0 PUSH1 0x20 DUP3 ADD SWAP1 POP PUSH2 0x281 PUSH0 DUP4 ADD DUP5 PUSH2 0x25F JUMP JUMPDEST SWAP3 SWAP2 POP POP JUMP JUMPDEST PUSH0 PUSH0 REVERT JUMPDEST PUSH0 PUSH2 0x295 DUP3 PUSH2 0x1FE JUMP JUMPDEST SWAP1 POP SWAP2 SWAP1 POP JUMP JUMPDEST PUSH2 0x2A5 DUP2 PUSH2 0x28B JUMP JUMPDEST DUP2 EQ PUSH2 0x2AF JUMPI PUSH0 PUSH0 REVERT JUMPDEST POP JUMP JUMPDEST PUSH0 DUP2 CALLDATALOAD SWAP1 POP PUSH2 0x2C0 DUP2 PUSH2 0x29C JUMP JUMPDEST SWAP3 SWAP2 POP POP JUMP JUMPDEST PUSH0 PUSH1 0x20 DUP3 DUP5 SUB SLT ISZERO PUSH2 0x2DB JUMPI PUSH2 0x2DA PUSH2 0x287 JUMP JUMPDEST JUMPDEST PUSH0 PUSH2 0x2E8 DUP5 DUP3 DUP6 ADD PUSH2 0x2B2 JUMP JUMPDEST SWAP2 POP POP SWAP3 SWAP2 POP POP JUMP JUMPDEST PUSH0 DUP3 DUP3 MSTORE PUSH1 0x20 DUP3 ADD SWAP1 POP SWAP3 SWAP2 POP POP JUMP JUMPDEST PUSH32 0x696E737566666963656E742062616C616E636500000000000000000000000000 PUSH0 DUP3 ADD MSTORE POP JUMP JUMPDEST PUSH0 PUSH2 0x335 PUSH1 0x13 DUP4 PUSH2 0x2F1 JUMP JUMPDEST SWAP2 POP PUSH2 0x340 DUP3 PUSH2 0x301 JUMP JUMPDEST PUSH1 0x20 DUP3 ADD SWAP1 POP SWAP2 SWAP1 POP JUMP JUMPDEST PUSH0 PUSH1 0x20 DUP3 ADD SWAP1 POP DUP2 DUP2 SUB PUSH0 DUP4 ADD MSTORE PUSH2 0x362 DUP2 PUSH2 0x329 JUMP JUMPDEST SWAP1 POP SWAP2 SWAP1 POP JUMP INVALID LOG2 PUSH5 0x6970667358 0x22 SLT KECCAK256 PUSH12 0x646EFFC816A5AA6ABB608939 0x26 0x2A PUSH12 0x726C70D4CDDA0C87AAB1CA4A 0xB6 CODECOPY PUSH26 0xAE64736F6C634300081E00330000000000000000000000000000 "
				},
				"gasEstimates": {
					"creation": {
						"codeDepositCost": "185400",
						"executionCost": "224",
						"totalCost": "185624"
					},
					"external": {
						"getCallerAddress()": "379",
						"getCallerWalletBalance()": "2981",
						"getContractAddress()": "357",
						"getContractBalance()": "356",
						"sendToken(address)": "infinite"
					}
				},
				"methodIdentifiers": {
					"getCallerAddress()": "46b3353b",
					"getCallerWalletBalance()": "7a69d12a",
					"getContractAddress()": "32a2c5d0",
					"getContractBalance()": "6f9fb98a",
					"sendToken(address)": "c575c238"
				}
			},
			"storageLayout": {
				"storage": [],
				"types": null
			},
			"userdoc": {
				"kind": "user",
				"methods": {},
				"version": 1
			}
		}
	}
}