{
	"data": {
		"bytecode": {
			"linkReferences": {},
			"object": "6080604052348015600e575f5ffd5b506105ed8061001c5f395ff3fe608060405260043610610054575f3560e01c8063063cfccb1461005857806332a2c5d01461009457806346b3353b146100be5780636f9fb98a146100e85780637a69d12a14610112578063c575c2381461013c575b5f5ffd5b348015610063575f5ffd5b5061007e60048036038101906100799190610399565b61016c565b60405161008b9190610440565b60405180910390f35b34801561009f575f5ffd5b506100a8610173565b6040516100b5919061049f565b60405180910390f35b3480156100c9575f5ffd5b506100d261017a565b6040516100df919061049f565b60405180910390f35b3480156100f3575f5ffd5b506100fc610181565b60405161010991906104d0565b60405180910390f35b34801561011d575f5ffd5b50610126610188565b60405161013391906104d0565b60405180910390f35b61015660048036038101906101519190610524565b6101a6565b60405161016391906104d0565b60405180910390f35b6060919050565b5f30905090565b5f33905090565b5f47905090565b5f3373ffffffffffffffffffffffffffffffffffffffff1631905090565b5f5f34116101e9576040517f08c379a00000000000000000000000000000000000000000000000000000000081526004016101e090610599565b60405180910390fd5b8173ffffffffffffffffffffffffffffffffffffffff166108fc3490811502906040515f60405180830381858888f1935050505015801561022c573d5f5f3e3d5ffd5b503373ffffffffffffffffffffffffffffffffffffffff16319050919050565b5f604051905090565b5f5ffd5b5f5ffd5b5f5ffd5b5f5ffd5b5f601f19601f8301169050919050565b7f4e487b71000000000000000000000000000000000000000000000000000000005f52604160045260245ffd5b6102ab82610265565b810181811067ffffffffffffffff821117156102ca576102c9610275565b5b80604052505050565b5f6102dc61024c565b90506102e882826102a2565b919050565b5f67ffffffffffffffff82111561030757610306610275565b5b61031082610265565b9050602081019050919050565b828183375f83830152505050565b5f61033d610338846102ed565b6102d3565b90508281526020810184848401111561035957610358610261565b5b61036484828561031d565b509392505050565b5f82601f8301126103805761037f61025d565b5b813561039084826020860161032b565b91505092915050565b5f602082840312156103ae576103ad610255565b5b5f82013567ffffffffffffffff8111156103cb576103ca610259565b5b6103d78482850161036c565b91505092915050565b5f81519050919050565b5f82825260208201905092915050565b8281835e5f83830152505050565b5f610412826103e0565b61041c81856103ea565b935061042c8185602086016103fa565b61043581610265565b840191505092915050565b5f6020820190508181035f8301526104588184610408565b905092915050565b5f73ffffffffffffffffffffffffffffffffffffffff82169050919050565b5f61048982610460565b9050919050565b6104998161047f565b82525050565b5f6020820190506104b25f830184610490565b92915050565b5f819050919050565b6104ca816104b8565b82525050565b5f6020820190506104e35f8301846104c1565b92915050565b5f6104f382610460565b9050919050565b610503816104e9565b811461050d575f5ffd5b50565b5f8135905061051e816104fa565b92915050565b5f6020828403121561053957610538610255565b5b5f61054684828501610510565b91505092915050565b7f696e737566666963656e742062616c616e6365000000000000000000000000005f82015250565b5f6105836013836103ea565b915061058e8261054f565b602082019050919050565b5f6020820190508181035f8301526105b081610577565b905091905056fea264697066735822122002375bd322cbec3aefd1e8654f74ca7fd87344e320ec6bc7ae9da001bcc7a10464736f6c634300081e0033",
			"opcodes": "PUSH1 0x80 PUSH1 0x40 MSTORE CALLVALUE DUP1 ISZERO PUSH1 0xE JUMPI PUSH0 PUSH0 REVERT JUMPDEST POP PUSH2 0x5ED DUP1 PUSH2 0x1C PUSH0 CODECOPY PUSH0 RETURN INVALID PUSH1 0x80 PUSH1 0x40 MSTORE PUSH1 0x4 CALLDATASIZE LT PUSH2 0x54 JUMPI PUSH0 CALLDATALOAD PUSH1 0xE0 SHR DUP1 PUSH4 0x63CFCCB EQ PUSH2 0x58 JUMPI DUP1 PUSH4 0x32A2C5D0 EQ PUSH2 0x94 JUMPI DUP1 PUSH4 0x46B3353B EQ PUSH2 0xBE JUMPI DUP1 PUSH4 0x6F9FB98A EQ PUSH2 0xE8 JUMPI DUP1 PUSH4 0x7A69D12A EQ PUSH2 0x112 JUMPI DUP1 PUSH4 0xC575C238 EQ PUSH2 0x13C JUMPI JUMPDEST PUSH0 PUSH0 REVERT JUMPDEST CALLVALUE DUP1 ISZERO PUSH2 0x63 JUMPI PUSH0 PUSH0 REVERT JUMPDEST POP PUSH2 0x7E PUSH1 0x4 DUP1 CALLDATASIZE SUB DUP2 ADD SWAP1 PUSH2 0x79 SWAP2 SWAP1 PUSH2 0x399 JUMP JUMPDEST PUSH2 0x16C JUMP JUMPDEST PUSH1 0x40 MLOAD PUSH2 0x8B SWAP2 SWAP1 PUSH2 0x440 JUMP JUMPDEST PUSH1 0x40 MLOAD DUP1 SWAP2 SUB SWAP1 RETURN JUMPDEST CALLVALUE DUP1 ISZERO PUSH2 0x9F JUMPI PUSH0 PUSH0 REVERT JUMPDEST POP PUSH2 0xA8 PUSH2 0x173 JUMP JUMPDEST PUSH1 0x40 MLOAD PUSH2 0xB5 SWAP2 SWAP1 PUSH2 0x49F JUMP JUMPDEST PUSH1 0x40 MLOAD DUP1 SWAP2 SUB SWAP1 RETURN JUMPDEST CALLVALUE DUP1 ISZERO PUSH2 0xC9 JUMPI PUSH0 PUSH0 REVERT JUMPDEST POP PUSH2 0xD2 PUSH2 0x17A JUMP JUMPDEST PUSH1 0x40 MLOAD PUSH2 0xDF SWAP2 SWAP1 PUSH2 0x49F JUMP JUMPDEST PUSH1 0x40 MLOAD DUP1 SWAP2 SUB SWAP1 RETURN JUMPDEST CALLVALUE DUP1 ISZERO PUSH2 0xF3 JUMPI PUSH0 PUSH0 REVERT JUMPDEST POP PUSH2 0xFC PUSH2 0x181 JUMP JUMPDEST PUSH1 0x40 MLOAD PUSH2 0x109 SWAP2 SWAP1 PUSH2 0x4D0 JUMP JUMPDEST PUSH1 0x40 MLOAD DUP1 SWAP2 SUB SWAP1 RETURN JUMPDEST CALLVALUE DUP1 ISZERO PUSH2 0x11D JUMPI PUSH0 PUSH0 REVERT JUMPDEST POP PUSH2 0x126 PUSH2 0x188 JUMP JUMPDEST PUSH1 0x40 MLOAD PUSH2 0x133 SWAP2 SWAP1 PUSH2 0x4D0 JUMP JUMPDEST PUSH1 0x40 MLOAD DUP1 SWAP2 SUB SWAP1 RETURN JUMPDEST PUSH2 0x156 PUSH1 0x4 DUP1 CALLDATASIZE SUB DUP2 ADD SWAP1 PUSH2 0x151 SWAP2 SWAP1 PUSH2 0x524 JUMP JUMPDEST PUSH2 0x1A6 JUMP JUMPDEST PUSH1 0x40 MLOAD PUSH2 0x163 SWAP2 SWAP1 PUSH2 0x4D0 JUMP JUMPDEST PUSH1 0x40 MLOAD DUP1 SWAP2 SUB SWAP1 RETURN JUMPDEST PUSH1 0x60 SWAP2 SWAP1 POP JUMP JUMPDEST PUSH0 ADDRESS SWAP1 POP SWAP1 JUMP JUMPDEST PUSH0 CALLER SWAP1 POP SWAP1 JUMP JUMPDEST PUSH0 SELFBALANCE SWAP1 POP SWAP1 JUMP JUMPDEST PUSH0 CALLER PUSH20 0xFFFFFFFFFFFFFFFFFFFFFFFFFFFFFFFFFFFFFFFF AND BALANCE SWAP1 POP SWAP1 JUMP JUMPDEST PUSH0 PUSH0 CALLVALUE GT PUSH2 0x1E9 JUMPI PUSH1 0x40 MLOAD PUSH32 0x8C379A000000000000000000000000000000000000000000000000000000000 DUP2 MSTORE PUSH1 0x4 ADD PUSH2 0x1E0 SWAP1 PUSH2 0x599 JUMP JUMPDEST PUSH1 0x40 MLOAD DUP1 SWAP2 SUB SWAP1 REVERT JUMPDEST DUP2 PUSH20 0xFFFFFFFFFFFFFFFFFFFFFFFFFFFFFFFFFFFFFFFF AND PUSH2 0x8FC CALLVALUE SWAP1 DUP2 ISZERO MUL SWAP1 PUSH1 0x40 MLOAD PUSH0 PUSH1 0x40 MLOAD DUP1 DUP4 SUB DUP2 DUP6 DUP9 DUP9 CALL SWAP4 POP POP POP POP ISZERO DUP1 ISZERO PUSH2 0x22C JUMPI RETURNDATASIZE PUSH0 PUSH0 RETURNDATACOPY RETURNDATASIZE PUSH0 REVERT JUMPDEST POP CALLER PUSH20 0xFFFFFFFFFFFFFFFFFFFFFFFFFFFFFFFFFFFFFFFF AND BALANCE SWAP1 POP SWAP2 SWAP1 POP JUMP JUMPDEST PUSH0 PUSH1 0x40 MLOAD SWAP1 POP SWAP1 JUMP JUMPDEST PUSH0 PUSH0 REVERT JUMPDEST PUSH0 PUSH0 REVERT JUMPDEST PUSH0 PUSH0 REVERT JUMPDEST PUSH0 PUSH0 REVERT JUMPDEST PUSH0 PUSH1 0x1F NOT PUSH1 0x1F DUP4 ADD AND SWAP1 POP SWAP2 SWAP1 POP JUMP JUMPDEST PUSH32 0x4E487B7100000000000000000000000000000000000000000000000000000000 PUSH0 MSTORE PUSH1 0x41 PUSH1 0x4 MSTORE PUSH1 0x24 PUSH0 REVERT JUMPDEST PUSH2 0x2AB DUP3 PUSH2 0x265 JUMP JUMPDEST DUP2 ADD DUP2 DUP2 LT PUSH8 0xFFFFFFFFFFFFFFFF DUP3 GT OR ISZERO PUSH2 0x2CA JUMPI PUSH2 0x2C9 PUSH2 0x275 JUMP JUMPDEST JUMPDEST DUP1 PUSH1 0x40 MSTORE POP POP POP JUMP JUMPDEST PUSH0 PUSH2 0x2DC PUSH2 0x24C JUMP JUMPDEST SWAP1 POP PUSH2 0x2E8 DUP3 DUP3 PUSH2 0x2A2 JUMP JUMPDEST SWAP2 SWAP1 POP JUMP JUMPDEST PUSH0 PUSH8 0xFFFFFFFFFFFFFFFF DUP3 GT ISZERO PUSH2 0x307 JUMPI PUSH2 0x306 PUSH2 0x275 JUMP JUMPDEST JUMPDEST PUSH2 0x310 DUP3 PUSH2 0x265 JUMP JUMPDEST SWAP1 POP PUSH1 0x20 DUP2 ADD SWAP1 POP SWAP2 SWAP1 POP JUMP JUMPDEST DUP3 DUP2 DUP4 CALLDATACOPY PUSH0 DUP4 DUP4 ADD MSTORE POP POP POP JUMP JUMPDEST PUSH0 PUSH2 0x33D PUSH2 0x338 DUP5 PUSH2 0x2ED JUMP JUMPDEST PUSH2 0x2D3 JUMP JUMPDEST SWAP1 POP DUP3 DUP2 MSTORE PUSH1 0x20 DUP2 ADD DUP5 DUP5 DUP5 ADD GT ISZERO PUSH2 0x359 JUMPI PUSH2 0x358 PUSH2 0x261 JUMP JUMPDEST JUMPDEST PUSH2 0x364 DUP5 DUP3 DUP6 PUSH2 0x31D JUMP JUMPDEST POP SWAP4 SWAP3 POP POP POP JUMP JUMPDEST PUSH0 DUP3 PUSH1 0x1F DUP4 ADD SLT PUSH2 0x380 JUMPI PUSH2 0x37F PUSH2 0x25D JUMP JUMPDEST JUMPDEST DUP2 CALLDATALOAD PUSH2 0x390 DUP5 DUP3 PUSH1 0x20 DUP7 ADD PUSH2 0x32B JUMP JUMPDEST SWAP2 POP POP SWAP3 SWAP2 POP POP JUMP JUMPDEST PUSH0 PUSH1 0x20 DUP3 DUP5 SUB SLT ISZERO PUSH2 0x3AE JUMPI PUSH2 0x3AD PUSH2 0x255 JUMP JUMPDEST JUMPDEST PUSH0 DUP3 ADD CALLDATALOAD PUSH8 0xFFFFFFFFFFFFFFFF DUP2 GT ISZERO PUSH2 0x3CB JUMPI PUSH2 0x3CA PUSH2 0x259 JUMP JUMPDEST JUMPDEST PUSH2 0x3D7 DUP5 DUP3 DUP6 ADD PUSH2 0x36C JUMP JUMPDEST SWAP2 POP POP SWAP3 SWAP2 POP POP JUMP JUMPDEST PUSH0 DUP2 MLOAD SWAP1 POP SWAP2 SWAP1 POP JUMP JUMPDEST PUSH0 DUP3 DUP3 MSTORE PUSH1 0x20 DUP3 ADD SWAP1 POP SWAP3 SWAP2 POP POP JUMP JUMPDEST DUP3 DUP2 DUP4 MCOPY PUSH0 DUP4 DUP4 ADD MSTORE POP POP POP JUMP JUMPDEST PUSH0 PUSH2 0x412 DUP3 PUSH2 0x3E0 JUMP JUMPDEST PUSH2 0x41C DUP2 DUP6 PUSH2 0x3EA JUMP JUMPDEST SWAP4 POP PUSH2 0x42C DUP2 DUP6 PUSH1 0x20 DUP7 ADD PUSH2 0x3FA JUMP JUMPDEST PUSH2 0x435 DUP2 PUSH2 0x265 JUMP JUMPDEST DUP5 ADD SWAP2 POP POP SWAP3 SWAP2 POP POP JUMP JUMPDEST PUSH0 PUSH1 0x20 DUP3 ADD SWAP1 POP DUP2 DUP2 SUB PUSH0 DUP4 ADD MSTORE PUSH2 0x458 DUP2 DUP5 PUSH2 0x408 JUMP JUMPDEST SWAP1 POP SWAP3 SWAP2 POP POP JUMP JUMPDEST PUSH0 PUSH20 0xFFFFFFFFFFFFFFFFFFFFFFFFFFFFFFFFFFFFFFFF DUP3 AND SWAP1 POP SWAP2 SWAP1 POP JUMP JUMPDEST PUSH0 PUSH2 0x489 DUP3 PUSH2 0x460 JUMP JUMPDEST SWAP1 POP SWAP2 SWAP1 POP JUMP JUMPDEST PUSH2 0x499 DUP2 PUSH2 0x47F JUMP JUMPDEST DUP3 MSTORE POP POP JUMP JUMPDEST PUSH0 PUSH1 0x20 DUP3 ADD SWAP1 POP PUSH2 0x4B2 PUSH0 DUP4 ADD DUP5 PUSH2 0x490 JUMP JUMPDEST SWAP3 SWAP2 POP POP JUMP JUMPDEST PUSH0 DUP2 SWAP1 POP SWAP2 SWAP1 POP JUMP JUMPDEST PUSH2 0x4CA DUP2 PUSH2 0x4B8 JUMP JUMPDEST DUP3 MSTORE POP POP JUMP JUMPDEST PUSH0 PUSH1 0x20 DUP3 ADD SWAP1 POP PUSH2 0x4E3 PUSH0 DUP4 ADD DUP5 PUSH2 0x4C1 JUMP JUMPDEST SWAP3 SWAP2 POP POP JUMP JUMPDEST PUSH0 PUSH2 0x4F3 DUP3 PUSH2 0x460 JUMP JUMPDEST SWAP1 POP SWAP2 SWAP1 POP JUMP JUMPDEST PUSH2 0x503 DUP2 PUSH2 0x4E9 JUMP JUMPDEST DUP2 EQ PUSH2 0x50D JUMPI PUSH0 PUSH0 REVERT JUMPDEST POP JUMP JUMPDEST PUSH0 DUP2 CALLDATALOAD SWAP1 POP PUSH2 0x51E DUP2 PUSH2 0x4FA JUMP JUMPDEST SWAP3 SWAP2 POP POP JUMP JUMPDEST PUSH0 PUSH1 0x20 DUP3 DUP5 SUB SLT ISZERO PUSH2 0x539 JUMPI PUSH2 0x538 PUSH2 0x255 JUMP JUMPDEST JUMPDEST PUSH0 PUSH2 0x546 DUP5 DUP3 DUP6 ADD PUSH2 0x510 JUMP JUMPDEST SWAP2 POP POP SWAP3 SWAP2 POP POP JUMP JUMPDEST PUSH32 0x696E737566666963656E742062616C616E636500000000000000000000000000 PUSH0 DUP3 ADD MSTORE POP JUMP JUMPDEST PUSH0 PUSH2 0x583 PUSH1 0x13 DUP4 PUSH2 0x3EA JUMP JUMPDEST SWAP2 POP PUSH2 0x58E DUP3 PUSH2 0x54F JUMP JUMPDEST PUSH1 0x20 DUP3 ADD SWAP1 POP SWAP2 SWAP1 POP JUMP JUMPDEST PUSH0 PUSH1 0x20 DUP3 ADD SWAP1 POP DUP2 DUP2 SUB PUSH0 DUP4 ADD MSTORE PUSH2 0x5B0 DUP2 PUSH2 0x577 JUMP JUMPDEST SWAP1 POP SWAP2 SWAP1 POP JUMP INVALID LOG2 PUSH5 0x6970667358 0x22 SLT KECCAK256 MUL CALLDATACOPY JUMPDEST 0xD3 0x22 0xCB EOFCREATE 0x3A 0xEF DATALOADN 0xE865 0x4F PUSH21 0xCA7FD87344E320EC6BC7AE9DA001BCC7A10464736F PUSH13 0x634300081E0033000000000000 "
		},
		"gasEstimates": {
			"creation": {
				"codeDepositCost": "303400",
				"executionCost": "341",
				"totalCost": "303741"
			},
			"external": {
				"getCallerAddress()": "401",
				"getCallerWalletBalance()": "3003",
				"getContractAddress()": "379",
				"getContractBalance()": "378",
				"sendToken(address)": "infinite",
				"storeName(string)": "infinite"
			}
		},
		"methodIdentifiers": {
			"getCallerAddress()": "46b3353b",
			"getCallerWalletBalance()": "7a69d12a",
			"getContractAddress()": "32a2c5d0",
			"getContractBalance()": "6f9fb98a",
			"sendToken(address)": "c575c238",
			"storeName(string)": "063cfccb"
		}
	},
	"abi": [
		{
			"inputs": [],
			"name": "getCallerAddress",
			"outputs": [
				{
					"internalType": "address",
					"name": "",
					"type": "address"
				}
			],
			"stateMutability": "view",
			"type": "function"
		},
		{
			"inputs": [],
			"name": "getCallerWalletBalance",
			"outputs": [
				{
					"internalType": "uint256",
					"name": "",
					"type": "uint256"
				}
			],
			"stateMutability": "view",
			"type": "function"
		},
		{
			"inputs": [],
			"name": "getContractAddress",
			"outputs": [
				{
					"internalType": "address",
					"name": "",
					"type": "address"
				}
			],
			"stateMutability": "view",
			"type": "function"
		},
		{
			"inputs": [],
			"name": "getContractBalance",
			"outputs": [
				{
					"internalType": "uint256",
					"name": "",
					"type": "uint256"
				}
			],
			"stateMutability": "view",
			"type": "function"
		},
		{
			"inputs": [
				{
					"internalType": "address payable",
					"name": "_rec",
					"type": "address"
				}
			],
			"name": "sendToken",
			"outputs": [
				{
					"internalType": "uint256",
					"name": "",
					"type": "uint256"
				}
			],
			"stateMutability": "payable",
			"type": "function"
		},
		{
			"inputs": [
				{
					"internalType": "string",
					"name": "_name",
					"type": "string"
				}
			],
			"name": "storeName",
			"outputs": [
				{
					"internalType": "string",
					"name": "",
					"type": "string"
				}
			],
			"stateMutability": "view",
			"type": "function"
		}
	]
}